:1000000012C02CC02BC02AC029C028C027C026C0BF
:1000100025C024C023C022C021C020C01FC01EC0D4
:100020001DC01CC01BC011241FBECFE5D4E0DEBF25
:10003000CDBF10E0A0E6B0E0E8E7FCE002C005902C
:100040000D92A03BB107D9F710E0A0EBB0E001C0E2
:100050001D92A93BB107E1F774D20CC6D1CF85B58B
:10006000896685BDBB9A13BC0895B09B02C080E031
:1000700008958AEF90E020E931E0F9013197F1F736
:100080000197D9F7B09902C0B09BFECF8091B00024
:10009000882321F481E08093B00008951092B0008D
:1000A00081E0089581E061E05FD380E690E07CD359
:1000B00086E061E059D38EE205D380E161E054D35C
:1000C00085E200D381E062E04FD384E690E06CD318
:1000D0008AE062E049D388E690E066D38FE062E090
:1000E00043D38EE2EFD20895EF92FF920F931F93C6
:1000F000F82EE62E8A0138D3C80168EE73E084D565
:10010000862F805DDFD2C80168EE73E07DD5182FA1
:10011000092F64E670E078D5862F805DD3D28F2DCD
:100120008E5F6E2D21D38EE2CDD2812F902F64E68B
:1001300070E06AD56AE070E067D5862F805DC2D234
:100140001F910F91FF90EF9008951F9364E650D593
:10015000192F892F6AE04CD5805DB4D2812F6AE0D7
:1001600047D5892F805DAED21F9108950F931F93BD
:10017000082F8EE061E0F8D210E00F5F1F4F84E699
:1001800090E09C01029FC001039F900D129F900D73
:100190001124892F990F990BD8DF1F910F91089582
:1001A000EF92FF920F931F9380E065E670E005D217
:1001B000A0E0B0E0BC01CD0102D42CEE31E540EA74
:1001C00050E48FD420E030E040E85AE38AD47B0149
:1001D0008C012CEE31E540E250E47FD418161CF07F
:1001E00060E070E012C0C801B7012CEE31E540E2DA
:1001F00050E4ECD224EA30E74DE35EE34CD320E058
:1002000030E048EC52E46DD4AED3CB011F910F9196
:10021000FF90EF90089581E065E670E0CED1A0E018
:10022000B0E0BC01CD01CBD32CEE31E540EA50E487
:1002300058D420E030E040E850E453D420E030E0EF
:1002400040E85AE34ED420E030E048EC52E449D490
:100250008AD3CB0108950F931F93CF93DF93C19857
:10026000C0E4DCE9CE010197F1F7D5DF9093B5004A
:100270008093B400892B31F581E008D2CE0101973B
:10028000F1F781E061E070D28CE690E08DD21092BF
:10029000B100C0E9D1E011E011C0BDDF9093B5001D
:1002A0008093B40028E833E1FE013197F1F7215043
:1002B0003040D1F7892B11F01093B1008091B1003B
:1002C000882359F38091B4009091B5000197835829
:1002D000934080F481E0DAD180E49CE90197F1F762
:1002E00081E061E041D28CE790E05ED21092AE00F6
:1002F0001092B1008091B4009091B5008558934060
:1003000018F081E08093B1001091B100113009F034
:10031000D0C081E0BBD180E49CE90197F1F7C2DE57
:100320001093B20089E061E01FD28CE890E03CD2EB
:100330008FE383BDC19A00E911E0C0E4DCE948C065
:100340002FDF9093B8008093B7008436910518F49E
:1003500083B58F5F05C08436910519F083B5815050
:1003600083BD59DFAC019093B5008093B40084E065
:1003700061E0BADE4091B7005091B8008DE062E0D4
:10038000B3DE83B5F3DE88E893E1F8013197F1F746
:100390000197D9F7C198CE010197F1F73CDFAC0185
:1003A0009093B5008093B40084E0493D580760F015
:1003B0001092B20084E062E097DE89E061E0D4D17F
:1003C0008FE890E0F1D104C084E062E08DDEC19A54
:1003D0008091B200813009F4B3CF81E08093B60000
:1003E00089E061E0C1D182E990E0DED1C19A00E903
:1003F00011E0C0E4DCE958C00EDFAC019093B50019
:100400008093B40024E08C3E920718F483B58F5F8C
:1004100006C084E04C3E580719F083B5815083BD77
:1004200084E061E061DE83B5A1DEBADE9093B800BE
:100430008093B70080E197E2F8013197F1F70197D7
:10044000D9F7C198CE010197F1F7E5DEAC019093A1
:10045000B5008093B40084E062E046DE4091B700CE
:100460005091B80043315105D8F48091B400909177
:10047000B500835E9440A0F081E008D180E49CE95F
:100480000197F1F781E061E06FD185E990E08CD1CF
:100490001092B6001092B1001092AE00C29A09C03C
:1004A0008DE062E021DEC19A8091B600813009F4CE
:1004B000A3CFDF91CF911F910F9108950F931F93B9
:1004C000CF93DF9381E0E2D088EE93E020E931E042
:1004D000F9013197F1F70197D9F781E062E044D152
:1004E00085EA90E061D1C0E9D1E000EA1FE020C0D8
:1004F00092DEAC019093B5008093B40084E061E09B
:10050000F3DD88EE93E0FE013197F1F70197D9F71B
:10051000ACDD882369F081E0B9D0C8010197F1F71B
:10052000C1DD88EE93E0FE013197F1F70197D9F72D
:100530008091B0008823E1F6DF91CF911F910F9158
:1005400008950F931F93B898C09A87B3866087BBAE
:1005500088B3897F88BB00EA1FE0C8010197F1F7E3
:100560001BD0C8010197F1F785B5896685BDBB9A97
:1005700013BCC8010197F1F7C4D080E49CE901974E
:10058000F1F78FE383BD71DD811198DF8091AE00BB
:100590008823C9F360DEF7CF14BA86B1876886B9BD
:1005A0000895877087B9369A349BFECF85E08A9587
:1005B000F1F724B135B1C90108952F923F924F92BE
:1005C0005F926F927F928F929F92AF92BF92CF92E3
:1005D000DF92EF92FF920F931F93DF93CF93CDB7EC
:1005E000DEB7882E5B012DB63EB6CB01880F991F72
:1005F0002DB73EB7281B390B0FB6F8943EBF0FBE80
:100600002DBF6DB67EB60894611C711C9924CC2454
:10061000DD24760130EA432E3FE0532E13C0882DAF
:10062000C0DF000F111F060D171DF8019183808395
:10063000A0E0B0E0C80ED91EEA1EFB1EC201019761
:10064000F1F79394092D10E00A151B0540F395016D
:1006500040E050E0C701B601EBD2C9010FB6F894F3
:100660003EBE0FBE2DBECF91DF911F910F91FF9027
:10067000EF90DF90CF90BF90AF909F908F907F9042
:100680006F905F904F903F902F90089592B3282FD6
:10069000207F9F70292B22BB90989198929A25E0F9
:1006A000922F9A95F1F792989AE69A95F1F792B36C
:1006B0008295807F9F70982B92BB929A2A95F1F732
:1006C0009298089592B3282F207F9F70292B22BBE8
:1006D000909A9198929A25E0922F9A95F1F7929894
:1006E00092B38295807F9F70982B92BB909A91983D
:1006F000929A2A95F1F7929880E991E00197F1F7A3
:100700000895EF92FF920F931F938FEF81BB929802
:1007100080E4E82E8FE1F82EC7010197F1F783E31B
:10072000B5DF00E911E0C8010197F1F782E3AEDF20
:10073000C8010197F1F788E2A9DFC8010197F1F735
:100740008CE0A4DFC8010197F1F781E09FDFC701CA
:100750000197F1F786E09ADFC8010197F1F71F9141
:100760000F91FF90EF900895DF93CF9300D000D0CA
:10077000CDB7DEB790E8998390EC9A8394E99B8398
:1007800094ED9C838150FE01E60FF11D9081890F4D
:100790007DDF80E991E00197F1F70F900F900F90C6
:1007A0000F90CF91DF9108951F93CF93DF93EC01CA
:1007B00010E002C087DF1F5FFE01E10FF11D8081A5
:1007C0008823C1F7DF91CF911F9108955058BB271F
:1007D000AA270ED048C139D130F03ED120F031F4F3
:1007E0009F3F11F41EF42EC10EF4E095E7FB24C1E7
:1007F000E92F4AD180F3BA17620773078407950778
:1008000018F071F49EF562C10EF4E0950B2EBA2F2C
:10081000A02D0B01B90190010C01CA01A001112406
:10082000FF27591B99F0593F50F4503E68F11A16B2
:10083000F040A22F232F342F4427585FF3CF469543
:1008400037952795A795F0405395C9F77EF41F1665
:10085000BA0B620B730B840BBAF09150A1F0FF0F2F
:10086000BB1F661F771F881FC2F70EC0BA0F621F1B
:10087000731F841F48F4879577956795B795F7950B
:100880009E3F08F0B3CF9395880F08F09927EE0F9D
:100890009795879508950CD0E6C0DED040F0D5D06E
:1008A00030F021F45F3F19F0C7C0511110C1CAC028
:1008B000EBD098F39923C9F35523B1F3951B550B4E
:1008C000BB27AA2762177307840738F09F5F5F4F23
:1008D000220F331F441FAA1FA9F333D00E2E3AF064
:1008E000E0E830D091505040E695001CCAF729D07E
:1008F000FE2F27D0660F771F881FBB1F26173707CD
:100900004807AB07B0E809F0BB0B802DBF01FF27FC
:1009100093585F4F2AF09E3F510568F08DC0D7C0B5
:100920005F3FECF3983EDCF3869577956795B79536
:10093000F7959F5FC9F7880F911D9695879597F951
:100940000895E1E0660F771F881FBB1F62177307CA
:100950008407BA0720F0621B730B840BBA0BEE1FDF
:1009600088F7E095089598D088F09F5790F0B92FB8
:100970009927B751A0F0D1F0660F771F881F991FF4
:100980001AF0BA95C9F712C0B13081F09FD0B1E02A
:1009900008959CC0672F782F8827B85F39F0B93F3A
:1009A000CCF3869577956795B395D9F73EF49095F6
:1009B0008095709561957F4F8F4F9F4F0895E89474
:1009C00009C097FB3EF490958095709561957F4F97
:1009D0008F4F9F4F9923A9F0F92F96E9BB27939545
:1009E000F695879577956795B795F111F8CFFAF455
:1009F000BB0F11F460FF1BC06F5F7F4F8F4F9F4F86
:100A000016C0882311F096E911C0772321F09EE8E3
:100A1000872F762F05C0662371F096E8862F70E049
:100A200060E02AF09A95660F771F881FDAF7880F23
:100A30009695879597F9089597F99F6780E870E0F4
:100A400060E008959FEF80EC089500240A94161644
:100A5000170618060906089500240A9412161306AC
:100A6000140605060895092E0394000C11F488233A
:100A700052F0BB0F40F4BF2B11F460FF04C06F5F56
:100A80007F4F8F4F9F4F089557FD9058440F551F2C
:100A900059F05F3F71F04795880F97FB991F61F000
:100AA0009F3F79F087950895121613061406551F77
:100AB000F2CF4695F1DF08C0161617061806991FE3
:100AC000F1CF86957105610508940895E894BB27D8
:100AD00066277727CB0197F9089566D008F48FEF42
:100AE00008950BD0C0CFB1DF28F0B6DF18F0952302
:100AF00009F0A2CFA7CF1124EACFC6DFA0F3959FBC
:100B0000D1F3950F50E0551F629FF001729FBB27F4
:100B1000F00DB11D639FAA27F00DB11DAA1F649FA0
:100B20006627B00DA11D661F829F2227B00DA11D53
:100B3000621F739FB00DA11D621F839FA00D611DD9
:100B4000221F749F3327A00D611D231F849F600DFA
:100B5000211D822F762F6A2F11249F5750408AF033
:100B6000E1F088234AF0EE0FFF1FBB1F661F771FBF
:100B7000881F91505040A9F79E3F510570F05CCFFF
:100B8000A6CF5F3FECF3983EDCF3869577956795AB
:100B9000B795F795E7959F5FC1F7FE2B880F911DDD
:100BA0009695879597F90895990F0008550FAA0B08
:100BB000E0E8FEEF16161706E807F907C0F0121670
:100BC0001306E407F50798F0621B730B840B950B73
:100BD00039F40A2661F0232B242B252B21F40895C8
:100BE0000A2609F4A140A6958FEF811D811D089565
:100BF000991B79E004C0991F961708F0961B881F6F
:100C00007A95C9F780950895AA1BBB1B51E107C0CF
:100C1000AA1FBB1FA617B70710F0A61BB70B881F8C
:100C2000991F5A95A9F780959095BC01CD0108951B
:100C3000A1E21A2EAA1BBB1BFD010DC0AA1FBB1FE0
:100C4000EE1FFF1FA217B307E407F50720F0A21B52
:100C5000B30BE40BF50B661F771F881F991F1A94BF
:100C600069F760957095809590959B01AC01BD01E9
:080C7000CF010895F894FFCFB5
:100C7800566F2D0056622D0049612D0020496E7374
:100C880065727420626174746572790020466175BA
:100C98006C74792062617474657279004343002032
:100CA800200043560043686172676520636F6D706A
:100CB8006C6574650063616C206D6F64650001008C
:00000001FF
